:020000040003F7
:10C0000028400020E1C30300FBC30300FDC303007D
:10C010000000000000000000000000000000000020
:10C02000000000000000000000000000FFC303004B
:10C03000000000000000000001C4030003C403006E
:10C0400005C4030005C403007BC5030005C4030049
:10C0500005C403000000000079CC030005C4030000
:10C0600005C4030005C4030005C4030005C40300A0
:10C0700005C4030005C4030005C4030005C4030090
:10C0800005C4030027D4030005C4030005C403004E
:10C090003DD4030005C40300EBED030005C4030019
:10C0A00005C4030005C403000000000000000000F8
:10C0B0000000000000000000000000000000000080
:10C0C00000F002F800F040F80CA030C8083824183E
:10C0D0002D18A246671EAB4654465D46AC4201D1C0
:10C0E00000F032F87E460F3E0FCCB64601263342B2
:10C0F00000D0FB1AA246AB46334318476430000019
:10C1000084300000103A02D378C878C1FAD85207B8
:10C1100001D330C830C101D504680C6070470000FD
:10C120000023002400250026103A01D378C1FBD853
:10C13000520700D330C100D50B6070471FB5C04611
:10C14000C0461FBD10B510BD02F09AFF1146FFF7A3
:10C15000F5FF00F0A9F802F0B2FF03B4FFF7F2FF19
:10C1600003BC02F0B7FF0000401E00BF00BF00BFCD
:10C1700000BF00BF00BF00BF00BF00BF00BF00BFC7
:10C1800000BFF1D170470000401E00BF00BF00BFDC
:10C1900000BF00BF00BF00BF00BF00BF00BF00BFA7
:10C1A00000BFF1D170470000056885F3088840683A
:10C1B000FF2464B2EFF30585002D01D1A6460047A8
:10C1C0002546064621273FBAF0B400240025002664
:10C1D0000027F0B4F92040B20047000070B50546D2
:10C1E0000C46164602E00FCC0FC5103E102EFAD2B8
:10C1F000082E02D303CC03C5083E042E07D301CC7E
:10C2000001C5361F03E021782970641C6D1C761E61
:10C21000F9D270BD0A4610B50146664800F0ECFE42
:10C2200010BD10B500F036FE10BD10B5624C86B0E2
:10C230001ECC03946C460EC4002807D0684618DF55
:10C24000002803D00022114600F0D6FE0F20800304
:10C2500013DF002803D00022114600F0CDFE574B1B
:10C26000482257490D2002F093FD002803D00022F8
:10C27000114600F0C1FE002004900590012069469F
:10C28000087404A860DF002803D00022114600F0E3
:10C29000B3FE4C4802F0A1FD002803D00022114655
:10C2A00000F0AAFE06B010BD08B54748C169B12923
:10C2B00043D0002445480F2140698903884204D0B7
:10C2C00000221146104600F097FE01200007006989
:10C2D00001218902884204D000221146104600F054
:10C2E0008BFE3B4800903B4B05220321002001F0D0
:10C2F000CCF8002803D00022114600F07DFE01F0AA
:10C30000E3FB01F027FC012500281AD001F031FCE5
:10C31000002803D00022114600F06EFE204668403F
:10C32000FFF783FF00F038F801F049FC00280ED039
:10C330000022114600F060FE09E001240021C161E5
:10C34000B8E720466840FFF770FF00F025F80325A6
:10C350002D03002C04D1A86801F00DFB002807D1A3
:10C3600001F0C4FB002803D00022114600F044FE77
:10C37000A86801F000FB002806D001F0EBFB0028C4
:10C3800002D1A86801F0BEFBBFF34F8F13491248DA
:10C39000C860BFF34F8FFEE7094A10B54832142139
:10C3A000082000F035FE002803D00022114600F0DE
:10C3B00023FE10BDEFBEADDEFCF003002BEE03004C
:10C3C0003C2F002023C20300000500400010001095
:10C3D0001BD90300FC2C00200400FA0500ED00E04E
:10C3E00003210C4802680A4302600B4802680A43B2
:10C3F00002600A4880470A480047FEE7FEE7FEE77A
:10C40000FEE7FEE7FEE7000006480749054A074B3E
:10C4100070470000240500405405004039C4030063
:10C42000C1C0030028380020284000202838002000
:10C43000234922480860704710B500F01DF8002815
:10C4400005D021491F484860C81320498861204809
:10C45000018CC9B201290ED1818C09070BD1018D44
:10C460000906090F042906D1808D0006000F02D1AC
:10C4700018490120886010BD1548018CC9B20129F6
:10C4800017D1818C090714D1018D09060A0F03D138
:10C49000828D1206120F0ED0090F012903D1828D51
:10C4A0001206120F07D0032903D1808D0006000F5A
:10C4B00001D0002070470120704700000024F400E4
:10C4C000002C0020DFFF07C000050040006C00408A
:10C4D000C00F00F0000600401CB5B3490120C86041
:10C4E000B249487003206A461070896868468847D8
:10C4F0001CBD70B502240122AD4DAB4EAB4903000B
:10C5000002F0EFFD05040C2619200B0048780128E5
:10C5100018D0022801D10320487070BD4878002847
:10C5200002D00328F9D104E00420286032604A7068
:10C5300070BD4C7070BD4878012806D0022804D028
:10C540000328F7D100F025F970BDFFF7C5FF70BDD6
:10C5500048780128FBD14878022800D0B26088785A
:10C56000E861E6E710B500F064FB002801D0002088
:10C5700000E00120FFF7BDFF10BDFEB58D4CA068A7
:10C580008A4D8D4E002700280ED0706840070BD5CD
:10C59000A760874880690422C0B2A88069460A70F3
:10C5A0000871A96868468847E069002806D0706865
:10C5B000000603D5E7610320FFF79BFF606A0028B0
:10C5C0000ED0706880050BD567627949803908689C
:10C5D000086002216A4611700190A9686846884780
:10C5E000FEBDFFB50446714983B0002048708A60E3
:10C5F000421E8A806178012632468A406F498A60ED
:10C60000617803228B006E495B181A6022780C2334
:10C61000920051180B60664D6178E960217869617C
:10C62000A1686962624F61794037002902D00E210A
:10C63000F96200E0F8622379022B17D05D495A4A6B
:10C64000012B44D004232B608860C861F86A40083D
:10C650004000F862581FA860286196601660534831
:10C6600046700C98008800283DD042E000F046F962
:10C67000002803D100F01DF9002852D15148694625
:10C6800000680090A07800F0B3F9002849D1401E5E
:10C690002861A078A860F86A3043F86249484A4A9D
:10C6A00040680190E07801A900F03DFA002838D1F7
:10C6B000E078012100F078FAE07800F0BAFA00287A
:10C6C00001D0002000E00120FFF713FFC9E7042399
:10C6D0002B608860C861F86A3043F862E0782861AE
:10C6E000A078A860B9E731490C9A08781080401CFE
:10C6F000087000213048C9438160A1218900416050
:10C70000324904200860324B06991A68FF24240439
:10C710008907090EA24309040A431A602D490860DB
:10C72000002007B0F0BD10B5204904468B882A4A86
:10C730000020934201D1052010BD23708A8010BDD6
:10C74000014610B5194800244278012A01D004247A
:10C7500003E081700220FFF7CCFE204610BD0020D0
:10C76000704712494978002900D00121017000204A
:10C77000704710B5FF2803D20420FFF7BAFE06E089
:10C780000420FFF7B6FE0A48006900F0E1F8002037
:10C7900010BD06490020487003490122CA604A6062
:10C7A000034908607047000000200040042C00206E
:10C7B00000250040002100400023004000050050FB
:10C7C000000700500CF1030065C5030080E200E0A3
:10C7D00000E400E000E100E0FFFF000031B5054C9F
:10C7E00004E0401E00902046FFF7BEFC00980028A1
:10C7F000F7D138BDE70300008207D30EFF229A402D
:10C800008907090E10B5994000280BDA03071B0FA2
:10C81000083B9C080C4BA400E318DC6994430C43D0
:10C82000DC6107E08408094BA400E4182368934303
:10C830000B432360C106C90E0120884004490860EB
:10C840000449086010BD000000ED00E000E400E0D5
:10C8500080E200E000E100E08200FA48101802687F
:10C8600003231B049A430260026809040A4302601E
:10C870007047F0B50025ED43002A02D000230426BE
:10C8800001E004230526F04C04E09F00E7597F1CDB
:10C8900004D05B1CB342F8D32846F0BD5DB2261825
:10C8A00035759E00A151002AF6D1E1182031087497
:10C8B000F2E770B5E44D2035687D002801D00820EE
:10C8C00070BD0020E049421E0B18401CC0B21A7512
:10C8D0002028F9D30024204600F05FFA641CE4B25B
:10C8E000052CF8D301210620FFF786FF0120D74948
:10C8F000C007486001206875002070BDD248203014
:10C90000407D002800D00120704710B5044600F09B
:10C9100035FA002808D0CB48A1000A181068022177
:10C9200088430843106010BD204600F01DFA00281F
:10C93000F9D0204600F02CFAC549820051180A6946
:10C94000520852000A6101218140C048816010BD37
:10C9500010B50446FFF7D9FF204600F005FA00287D
:10C9600007D0204600F014FAB94A00218000801850
:10C970000161B44A0220A10089180860204600F035
:10C9800007FAC0B200F009FA0020AF49C043091904
:10C99000087510BD70B5044600F0E6F9AA490D19F6
:10C9A000002802D0287D00F0F8F90020C043287547
:10C9B000A44A0220A1008918086070BD70B5002447
:10C9C000A14D2646291914200856811C0CD0C017E9
:10C9D000401C02D02046FFF7BBFF641C202CF1D383
:10C9E00099482030467570BD2046FFF7D3FFF4E725
:10C9F000F8B5044694480D46001914214156002606
:10CA0000491C01D008262FE0A97800291DD0012259
:10CA100000212046FFF72DFF411C14D083008C48D5
:10CA20002A781818697803698A4F3B4003610369C3
:10CA3000E706FF0C9207920BC907C90A3B430A435A
:10CA40001343036104E004260EE00121C94301758C
:10CA50007C4A0320A100891808606A780120A04060
:10CA60007D49012A02D0C8603046F8BD8860FBE7E6
:10CA700001218140784881607047012181407648DA
:10CA8000C1607047744A012153688140C340D80790
:10CA9000C00F01D0D1607047916070476A49091892
:10CAA0001420085681006A480918086903221043B7
:10CAB0001F22120202430A6100BF00BF00BF0861CB
:10CAC0007047614909181420085681006048081809
:10CAD0000169890889000161704710B500F058F9B3
:10CAE00080065E49000E401810BD002900D00121CB
:10CAF000554A121814201056820055481018026921
:10CB000001231B059A430261026909050A43026178
:10CB1000704710B500F03CF98006504A000E012124
:10CB20008018016010BDF8B5474F0D46044638190E
:10CB3000142141560026C8171346401C01D0082670
:10CB400030E0EA7819462046FFF793FE411C28D0D2
:10CB50003C4BAA78A100C918002A03D00A68022316
:10CB60009A4301E06A7892000A60E978002910D0BF
:10CB700082003748297810180269394B1A4002613F
:10CB8000E206D20C8907890B0A4301690A43026154
:10CB900008E0381820302A78017C92011143017492
:10CBA00000E004263046F8BDF3B581B00F46019889
:10CBB00000F0E4F801240028234E019817D000F07B
:10CBC000E7F880192030007C8009032802D0012872
:10CBD0000BD005E02048006901998C40204204D028
:10CBE00003210198FFF738FEFEBD0221F9E700F0AE
:10CBF000BBF80028F8D0019800F0CAF8054681007B
:10CC0000C81D134AF93089180A6980B222430A61A3
:10CC10001249401800210160002FE5D0019800F072
:10CC2000B7F8800030580028DED00848AC40446097
:10CC3000FEBD09490969C140C807C00F00D00120E5
:10CC40007047000000070050D4300020006300400F
:10CC500000650040FFE0ECFF000500500060004070
:10CC6000FFE0FCFF10B500F093F88000FF300130CA
:10CC70004F4980B2401810BDF8B50025FF2401349B
:10CC800001262F460095204600F067F8002808D0BE
:10CC900048484068304204D04548002120183543B8
:10CCA0000160241D76007F1CA4B2042FEBD3FF206B
:10CCB0007D3000F052F8002807D03F480021016085
:10CCC000400705433D48006900903D4C280713D0BC
:10CCD00001270026384628420AD03A48B2001118E7
:10CCE00008690969C004C00E8903A258890F9047DA
:10CCF0007F00761C042EEDD3002D1DDA2046203057
:10CD000014214156491C17D0067DB506AD0E2846A4
:10CD100000F03EF880002458002C0DD0B609012107
:10CD2000A940294AA80080180068009A8003800F53
:10CD3000114202D0022802D0F8BD0328FCD1032EF4
:10CD400005D1022807D002212846FFF785FD31468C
:10CD50002846A047F8BD0321F6E7154940180068AA
:10CD6000012800D000206BE715490818142141560E
:10CD7000042901D2012063E7002061E71049081867
:10CD800014214156042901DB012059E7002057E70F
:10CD90000B4909181420085652E70022D243830099
:10CDA00007490428CA5002D308182030027447E704
:10CDB00000600040006300407C61004000050050BE
:10CDC000D430002000650040000700501822504376
:10CDD000874A0021801801718160416102228161CE
:10CDE0000261C160704770B5814C182221780F2014
:10CDF00051430A19121D7F49167813694D68012E97
:10CE00000FD0032E0CD101200007006981B2184613
:10CE100002F086F8401928DF002801D10121A17015
:10CE200070BDA802556851692D1A09189268181822
:10CE3000101801229202954202D2AA0829DFEBE7DC
:10CE4000FF22013229DFE7E7F8B5694C069E6578D5
:10CE50000A2D1DD027787D19EDB20A2D01D30A3D88
:10CE6000EDB218277D432D192871AA6103C9EE6020
:10CE7000AB6069612861A1780020002904D1FFF727
:10CE8000B2FF112800D100206178491C6170F8BD03
:10CE90000420F8BDF8B5564C0022A17801293FD1F5
:10CEA0000023A370064621460878182705467843D4
:10CEB0004118022E04D0032E32D1091D0D202DE081
:10CEC0004C484668761C46608968B6028E4214D388
:10CED00043606078401E6070681CC0B220700A28F1
:10CEE00001D30A382070182068430119091D104623
:10CEF00000F06DF82846FFF769FF607800280FD032
:10CF0000A07800280CD1FFF76EFF002808D0112868
:10CF100006D02178182251430919091D00F057F84D
:10CF2000F8BD70B50024334E31487460047044700D
:10CF3000847025462846FFF749FF6D1C0A2DF9D35A
:10CF40002C4934600020083174608200401C8C50F1
:10CF50000228FAD3002070BD10B5264B1A68022AA9
:10CF600009D00A601C469100083400686050521CC9
:10CF700000201A6010BD042010BD06207047F8B5CF
:10CF800007461D4616460C46084600F01AF80028CB
:10CF90000CD0601900F015F8002807D0334622465F
:10CFA000394601200095FFF74FFFF8BD1020F8BD6E
:10CFB00008B50B460022014603200092FFF744FF0C
:10CFC00008BD800701D0002070470120704738B5A8
:10CFD0000C46E268074B920008339D580978626856
:10CFE0000092024620460C306369A84738BD000015
:10CFF0000C310020102C0020BFF34F8F0349024852
:10D00000C860BFF34F8FFEE70400FA0500ED00E0B3
:10D0100030B5CB0008339DB293070024002B01D01C
:10D02000072030BD574B9A605219DA605C701C7053
:10D0300058809980002030BDF7B5524C82B060888E
:10D040000F4681426ED80020694608704F494E4E07
:10D050004868C005C00D18D0103840B2002807DA63
:10D060000207120F083A920892005118C96904E0A9
:10D070008108474A8900891809688007C00EC140A5
:10D080000806850F012D01D10AE00425684636DF28
:10D0900002280CD0002803D000221146FFF7ACFF75
:10D0A00022786078A188884203DA401C02E072B6D8
:10D0B000F6E70020C0B2904207D0667860788842D8
:10D0C00001DA401C00E000206070012D0BD062B638
:10D0D0006846007837DF022805D0002803D00022F8
:10D0E0001146FFF789FF2848864219D0A068F5004D
:10D0F00004994151029900290CD0002F0AD0608870
:10D100003A464643E068301801F098FEA0682818B7
:10D11000878002E0002128188180002005B0F0BD42
:10D120000420FBE70920F9E70EB504E06846818892
:10D13000029A0098904702AA01A9684600F003F8F5
:10D140000028F3D00EBD70B50E4B05241D785E7817
:10D15000AE4215D01D781C789E88B44201DA641C5A
:10D1600000E000241C705C88DE686C43A419046035
:10D170009B68E800C418A4880C801858002410602C
:10D18000204670BD202C0020FFFF000000ED00E0D5
:10D1900000E400E08307FF22DB0E9A408907090EB6
:10D1A000994000280BDA0007000F08388308FB4875
:10D1B0009B001B18D86990430843D86170478308C7
:10D1C000F7489B001B181868904308431860704785
:10D1D00070B50124F34960040860F3494010886089
:10D1E000F14940398860F14D6C602F20FEF7CCFF8B
:10D1F000AC60EF4D00242F206C61FEF7C5FF2C7151
:10D2000070BDF0B5EA4F2421BC6841430D1939695E
:10D210004A1C09D024224A4316196B68726893424B
:10D2200004D8D21A726029623861F0BD0A4602E061
:10D230000A46396A9B1B4E1C0BD024264E433719D5
:10D240007E689E42F4D324264E4336197768FF1A2F
:10D2500077606B60296224214A4311190862F0BD8E
:10D2600070B5D34C2269A5681346114606E0814289
:10D2700007D00A46242671434919096A4E1CF6D183
:10D2800070BD002EFCD08A420CD124204343581993
:10D29000006A2061401C05D1C44B01209860002326
:10D2A00063616071242041434819242341685A4333
:10D2B000006A52191062421CE2D0242250434019E5
:10D2C00042685118416070BDF8B5B94C2569681CB9
:10D2D00035D0B848002640686169401A07023F0A05
:10D2E00019E024204543A0682A185068B84214D891
:10D2F000A3693F1A8619156A002B09D0D169906974
:10D300009847002807D000221146FFF775FE02E07B
:10D310009169D0698847681CE3D1A178E07881429F
:10D3200006D1401CC0B2E070022801D10020E0709C
:10D330009F490006800D1C310E5000F0E7F9F8BD42
:10D34000F8B504469A4800270169009146785CE0E8
:10D350009748F100C2688D1851E0601C07D0944ACC
:10D3600024209268604321468018046A24E02878CB
:10D37000182141436A68401CC0B252182870A9782D
:10D38000884200D12F708A4B516824209B68484303
:10D39000C0181378012B34D1037D002B31D1936851
:10D3A0008360D368C360136903615269C261804AB4
:10D3B0005279002A00D087607D4B82685B6996466F
:10D3C0009C46D31A1A027C4B120A9A4202D2C368B4
:10D3D000D21808E0724663469A1A1202C368120A0B
:10D3E000934202D99A1A426000E0476087600122A6
:10D3F000C7600275921E02620846FFF702FF601CBA
:10D40000ABD1287869788842A7D13046761EF6B22B
:10D4100000289DD1664801690098814201D0012011
:10D42000F8BD0020F8BD65490020086048608860AC
:10D43000C860624940390860486045E7FEB5002091
:10D44000C0435B4D02906869019068462E6900F008
:10D4500062F9074600F07CF90446002F08D002AAC2
:10D460000199009800F0BCF90298FFF769FF06E007
:10D470000298FFF765FF002801D1002C02D030464A
:10D4800000F0D7F900206871FEBDFFB598070024B1
:10D4900081B01E4615460F4600280BD1002E09D03C
:10D4A000FFF796FE42490A9888610F7032460020C5
:10D4B0008E6008E0072005B0F0BD24234343D45418
:10D4C0009B181C75401CB842F7DB24204743BB194E
:10D4D000032048700F461846CB60194618300022CA
:10D4E00018232E465E43D3005B181C705C709D7041
:10D4F00058603018521C032AF5DB0020C043386105
:10D50000BC70FC7001242E48240504600321142003
:10D51000FFF740FE234880380460264C0198A06045
:10D5200003211120FFF736FE606878610020C2E712
:10D5300070B51F4CA568002D06D0002A06D0002823
:10D5400004D00023247809E0082070BD072070BDB6
:10D5500024265E43AE5D002E04D05B1CA342F7DBA5
:10D56000042070BD242401265C432E55641961708B
:10D57000A2610360002070BD08494868C005C00D65
:10D580002ED0103840B200281CDA0207120F083AD9
:10D59000920892005118C96919E0000000ED00E0FE
:10D5A00000E400E080E100E0401301400010014091
:10D5B000302C002000150140FFFF7F00401101408A
:10D5C00080E200E08108C74A89008918096880075D
:10D5D000C00EC1400806800F012803D0032803D0E5
:10D5E000022070470020704701207047FEB50446B6
:10D5F000BD48174682680D46002A0CD001788C423F
:10D6000001D2052D01D20720FEBD21462423594316
:10D61000535C012B01D00820FEBD881840780128FA
:10D620001DD00026FFF7A8FFC000AF490190C968D0
:10D630004018694600F043F9002812D0012101701A
:10D64000AA49446049680830E2C0A7490198C968FE
:10D6500041180098487000F059F80020FEBD2E4691
:10D66000E0E70420FEBDF8B59F4D0446A8680028F9
:10D6700009D029788C4201D30720F8BD24216143C9
:10D68000405C012801D00820F8BDFFF775FFC600F7
:10D69000E8686946301800F012F900280AD0022123
:10D6A00001704460E86831180098487000F02EF866
:10D6B0000020F8BD0420F8BD38B58B4CA0680028C8
:10D6C00015D0FFF759FFC500E0686946281800F03B
:10D6D000F6F800280DD003210170091F4160E068B1
:10D6E00029180098487000F011F8002038BD082073
:10D6F00038BD042038BD7D4949680160002070476D
:10D70000401A0002000A106000207047012078498A
:10D7100000050860704710B5734900238A78CC78FB
:10D72000A24212D0521CD2B28A70022A00D18B704F
:10D730008A786D4B92001C339A5802604869101821
:10D740000002000A4861012010BD0360002010BDE6
:10D75000F8B5654801690091457833E06248E90011
:10D76000C0680E1834782AE0182060437168641C81
:10D770000818B178E4B2A14200D10024017802294E
:10D7800002D003291BD113E0574A40682421926834
:10D7900041438F18397D002911D0FFF761FD00202A
:10D7A00038750CE024277843C0180275006A03E03E
:10D7B0004D4900228B680869471CF3D108617078D5
:10D7C000A042D1D128466D1EEDB20028C6D14648F0
:10D7D00001690098814201D00120F8BD0020F8BD08
:10D7E000F7B5414C0025A76823691EE02421594361
:10D7F000C9194E68864202D9301A486017E0801B6A
:10D80000751900264E600E750E699C460B6AB64669
:10D81000002E0AD0019E76193602360A8E607646B0
:10D82000CE6016680E6261461160591CDED123611C
:10D83000FEBDF8B52C4801694A1C3DD02422514355
:10D84000826889184E6829494C6847690079E11B4C
:10D850000D022D0AED1C002815D10120254A0004D7
:10D860005060244A403A50602149400080310860AD
:10D87000214908602149012008602F20FEF784FC1F
:10D88000194901200871B54200D23546E819000255
:10D890001649000A4031086014494968001B091BF9
:10D8A0000902090A0002C91C000A814203D90120A9
:10D8B0000F4940040860F8BDFFF78AFCF8BD4278C4
:10D8C0008378521C934200D100220378934201D105
:10D8D000002070470A6041684078182250430818B9
:10D8E0007047000000E400E0302C002000150140EB
:10D8F00000E200E04013014000E100E000100140C0
:10D9000010B50446082904D0002211461046FFF73E
:10D9100073FB21686068884710BD1CB501910090B9
:10D92000024A08216846FFF787FB1CBD01D90300A6
:10D9300010B5B8480378012B03D1012901D1022188
:10D940000170100003D000221146FFF755FB10BDF7
:10D9500010B5B04C48DF002803D000221146FFF775
:10D960004BFBFFF7E1FB2078022803D0032801D00E
:10D970000428EFD110BD38B50068401C19D0002430
:10D98000684600F04FF900980178012910D14188CC
:10D9900000290AD08168032000038068002200F07B
:10D9A00081F900994988814201D1012400E00024D5
:10D9B000204638BD10B5044696481C21001DFFF7CF
:10D9C000F7FA002803D000221146FFF715FB914813
:10D9D00000231C222146001DFFF7D1FA002803D0A6
:10D9E00000221146FFF708FB10BD0FB4F8B56846DA
:10D9F00000F018F96846027E418B0123854CFF2513
:10DA00008548002A12D0012A16D0032A2AD00021E4
:10DA1000022A36D0052A46D0042A4ED0062A01D141
:10DA200004202070F8BC08BC04B018474180099954
:10DA300081600370057110E04180089A0799891888
:10DA4000099A89188160A521017005710799C16043
:10DA50000899426101610A99816123706E48FFF75C
:10DA6000A9FFDFE700990A7802704A884280896836
:10DA70008160AA2101710799C16008990161099922
:10DA80000BE0009A1678A52E09D0067056884680BD
:10DA9000926882600571C16001614161DDE741808A
:10DAA00081600570F6E700F033FD002803D0002206
:10DAB0001146FFF7A1FA0320B3E7418081600570AA
:10DAC000009909790171C9E70EB5544A6B4607CA36
:10DAD00007C3FFF726FA002807D14E49FF2080022E
:10DAE000091D48606846FFF737FA0EBD10B500F013
:10DAF00025FA002805D100F0E9FC0446FFF728FFCD
:10DB0000204610BD70B511DF002803D00022114659
:10DB1000FFF772FA424900200A68414B0121803325
:10DB20000C468440144204D0C506ED0E0C46AC40B1
:10DB30001C60401C2028F3D303242403A06813DFB7
:10DB4000002803D000221146FFF756FAA06800F023
:10DB5000A5F870BD08B5684600F064F80098017833
:10DB6000A52904D00079AA2801D0002008BD0120F1
:10DB700008BD10B500F0B9FB002803D100F097FBF9
:10DB800000281BD06420FEF729FE00F03AFB002895
:10DB900003D000221146FFF72FFA00F0A6FB002861
:10DBA00003D000221146FFF727FA00F064FB0400BF
:10DBB00003D000221146FFF71FFA204610BD00B522
:10DBC000164987B014220C3101A8FEF707FB05980F
:10DBD000009001A80FC8FFF708FFFFF7B9FE00206B
:10DBE00007B000BD38B50446684600F01BF8009841
:10DBF00001782170418861808168A160017921717B
:10DC0000C168E16001692161416961618069A06168
:10DC100038BD0000542C00200032002014F1030015
:10DC200000E100E070B51B4905468868000A000263
:10DC300024D0194C08782070C8788A7800021043E4
:10DC40006080087920710846083000F019F8A0605B
:10DC500010480C3000F014F8E0600E48103000F06E
:10DC60000FF820610B48143000F00AF86061094891
:10DC7000183000F005F8A0612C6070BD296070BDFF
:10DC800010B5044601F03BF90002E178000A0906EC
:10DC9000084310BD00FC03001C32002010B5FEF745
:10DCA00083FA10BD10B50446002A02D01088002265
:10DCB00010E00A48FBE7030A00020343A05C584057
:10DCC00003061B0F43401803584083B21806C00CCC
:10DCD0005840521C8A42EED310BD0000FFFF0000E6
:10DCE00070B500250C290ED3044643180089410065
:10DCF0000919581A0A38C2B21E48022A027002D301
:10DD00000A318B4201D2092070BD1B4801F096F800
:10DD10001A481B4902888A4202D02388934218D1AC
:10DD20004088884202D06188814212D1144A03237C
:10DD3000521E20891B03A8420BD969000919498981
:10DD4000914204D09E896D1CB6B2B142F3D100203D
:10DD500070BD0B2070BD10B50022FFF7A3FF064A6F
:10DD60005178127809021143884201D00B2010BD6E
:10DD7000002010BD602C00203832002080100010E0
:10DD8000FFFF000070B5F84C1E466078154601296B
:10DD900002D0032916D108E0052813D1A369002B6E
:10DDA00010D03246294604200BE002280AD1EF4861
:10DDB0004068804703206070A369002B02D0324680
:10DDC00029469847280003D000221146FFF714F98E
:10DDD00070BD00B5E44987B0012008700520694690
:10DDE00008710598009001A80FC8FFF7FEFD07B065
:10DDF00000BD10B5DC4C2078002801D0082010BDF3
:10DE00002069FFF730FC002803D000221146FFF7FD
:10DE1000F3F80F21002289042069FFF7E7FB0400D3
:10DE200003D000221146FFF7E7F8204610BDCE4987
:10DE300010B5CD481C31416102214170C1681C30D0
:10DE4000FFF7B6F8002803D000221146FFF7D4F8F8
:10DE500010BD00B587B01422C54901A8FEF7BEF970
:10DE60000598009001A80FC8FFF7BFFDBFE7BF49A5
:10DE7000002050394A680321090389688A4208D979
:10DE8000511A880A80028905890D02D00121890270
:10DE90004018704700B587B0012168460171B2484B
:10DEA00081886846C1800320000380680590AF48E0
:10DEB00050384168029181680391C06804900598C8
:10DEC00000900A46049B02990198FFF78EFD0020FE
:10DED0008DE710B586B0142101A801F00EF80024DA
:10DEE00068460471A04881886846C1809F485038C0
:10DEF000C06804900598009001A80FC8FFF775FD51
:10DF0000204606B010BD00B587B0032168460171F8
:10DF1000954881886846C18094485038416802918C
:10DF200081680391C0680490059800900A46049B9C
:10DF300002990198FFF759FD002058E73EB58C4A39
:10DF40006B46143207CA07C3874D0024AC702946BC
:10DF5000AC801C316846FEF7FFFF002801D06C70D2
:10DF60003EBD03208049000380681C3148607E4824
:10DF7000804A00211030FFF7DBFA002803D000228E
:10DF80001146FFF739F80F21002289042869FFF7AD
:10DF90002DFB002803D000221146FFF72DF80120A9
:10DFA000AC60687000203EBD6F498861704770B5F5
:10DFB00042686E481468536891685038D2680460AB
:10DFC0004360C26081600078440701D5840705D1B1
:10DFD0009C0703D18C0701D1940701D0062070BDA6
:10DFE0005B189A18604D0F239B02EA60994206D88D
:10DFF0000321090389681B01591A914201D20C209F
:10E0000070BD5A4C5C4921605C496160C10701D018
:10E010005B4804E0800701D55A4800E05A48A060F8
:10E020006878012802D00826304670BDFFF7E1FE6F
:10E030000600FAD12168E8688847F5E770B5050061
:10E0400004D0287A800703D0102070BD0E2070BD48
:10E05000454C6078032803D0042801D0052801D05E
:10E06000082070BD6868E1688600A0688019884251
:10E0700004D90020C043A0600C2070BDFFF7B9FE9A
:10E080000028FAD1A9683246A3686069FEF777FFD5
:10E090000028F2D1A1688919A160E2689142ECD010
:10E0A000092070BD10B5304C0820A168002900D0AF
:10E0B00010BD61780429FBD12C48A1784038FFF7C6
:10E0C0000FFE002802D00021A17010BD0521617053
:10E0D00010BDF8B5244C07466078032804D0042806
:10E0E00004D008252846F8BD04206070A0680028E8
:10E0F00001D00820F8BDFFF77CFE0500FAD1786852
:10E100008600A0788119402901D90920F8BD174A55
:10E11000B968403A1018324600F090FEA078801995
:10E12000A070DFE710B5104C6078052813D1E168C6
:10E13000A06888420FD106206070FFF75AFE0028C1
:10E1400008D16069E1684068FFF705FE002801D149
:10E150000721617010BD082010BD10B5024841783C
:10E16000072913D0082010BD642C00209432002011
:10E1700034F10300D3DD03002FDE030053DE030080
:10E1800095DE030007DF0300D3DE03000069FFF71D
:10E190006AFA002803D000221146FEF72DFF7348CB
:10E1A00080688047DFE700B587B0062069460871C0
:10E1B0000598009001A80FC8FFF717FC17E6F8B5FF
:10E1C0001C4617460D46064600F0BBF8002817D03F
:10E1D00001200003854207D92346291B301B1A461C
:10E1E000FFF7EDFF00280BD13A462946304600F0F4
:10E1F000B3F8002804D13A462946304600F0A1F889
:10E20000F8BDF0B589B06846FFF7ECFC039800282C
:10E210002AD001210903069A4018904226D9501AA3
:10E2200045081046039A0C468718024668001618DF
:10E2300000190790032000038068039988420DD2DB
:10E2400061190846042200F087F800280CD1214605
:10E250000422084600F080F8002805D1BA1B2B469E
:10E2600030460799FFF7ABFF09B0F0BD039A069857
:10E2700000F072F8F8E700B58BB004A8FFF7B2FC25
:10E28000089800280DD0079800280CD007990A9804
:10E29000401801900021089800918008029068467B
:10E2A00018DF0BB000BD032000038068F1E700B564
:10E2B0008BB004A8FFF796FC08980028F1D00798C7
:10E2C00000280ED007990A984018032100910F21C9
:10E2D000029089030898019180080390684618DF2E
:10E2E000DFE7032000038068EFE730B58FB06846B2
:10E2F000FFF778FC0398002814D001210903069A3F
:10E300004018904214D9501A43081046039A5C00F2
:10E3100082180019611803242403A468039DAC42E9
:10E3200002D20E200FB030BD121AFFF748FFF9E7F6
:10E3300003200BAB07C3039880080E900BA818DFCF
:10E34000F0E71FB50323019090080390009302911A
:10E35000684618DF04B006E71FB501230190900856
:10E36000039000930291684618DFF3E7943200208F
:10E370000C2250436C4A002111508018816041608A
:10E38000704710B5042819D20C21674A41438B18F5
:10E3900051589C6800290FD0114620310A7C521E2A
:10E3A0000A74FFF7E5FF201F00F09AFC002803D055
:10E3B00000221146FEF720FE002010BD072010BDF0
:10E3C00010B5080003D000221146FEF715FE10BD5F
:10E3D00070B5554D2E4620362FE0002421460C20E6
:10E3E000414348190268002A24D0695801290ED0F7
:10E3F000032907D0042902D0052912D121E0FFF713
:10E400001DFE0EE081684160FFF7D1FD03E0FFF7DC
:10E4100060FEFFF747FE002803D000221146FEF7FA
:10E42000EBFDE0B2FFF7ADFF002803D0002211465C
:10E43000FEF7E2FD641C042CD0D3307C0028CCD144
:10E4400070BDFFF76FFEFFF788FE70BD3EB501A9F6
:10E45000684600F026FC002813D1009802AC03782F
:10E46000002B0ED030492031087C032809D02E4AD9
:10E4700000200C2545435559002D0CD0401C042884
:10E48000F7D3009800F02CFC002803D0002211469E
:10E49000FEF7B2FD3EBD20700C2460431350087C93
:10E4A000401C08746846808881086846007A491EC6
:10E4B00060438018416000991C4A091D8160002159
:10E4C0000846FEF7B9FD0028DBD13EBD164810B561
:10E4D0000021203001740C46E0B2FFF749FF641CB4
:10E4E000042CF9D31248FFF75FFD00F035FB00283C
:10E4F00003D000221146FEF77FFD0E4800F004FB1A
:10E50000002803D000221146FEF776FD002010BD42
:10E5100010B50024E0B2FFF734FF641C042CF9D3DB
:10E5200000F046FB10BD0000A0320020D1E3030044
:10E53000C1E303004DE403005948002101705A482B
:10E54000584A02608160C1600161022241614260FB
:10E5500081610846704700207047002805D0504967
:10E560000A78002A03D0042070470E207047012249
:10E570000A704C492039016000207047484900204A
:10E580000870704710B500291FD000220A60464A63
:10E590005368002B1DD04B24E400A04217D85B1E0B
:10E5A0005360D0689723401CD06010699B001468AA
:10E5B0004343E3180B6001210C46936984402343D5
:10E5C000814393610020116110BD0E2010BD0C200D
:10E5D00010BD042010BDF0B5334B84469968002966
:10E5E0002BD05A691020511AC907C90F96461D68C9
:10E5F0000A4601279726B6004E43AE19664506D156
:10E600003D469C698D406C4000209C6104E00E46B4
:10E610003946B1438E45EDD13D469C698D4339461F
:10E6200091400C420AD19968002907D0491E99608F
:10E6300059682A46491C5960F1E70420F0BD1A4A7E
:10E64000012113691268994397239B0059431B1FAB
:10E65000C91850500020704770B500281CD0002900
:10E660001AD0114AD368002B18D05B1ED360936870
:10E6700097265B1C93605369B6001D46146873436C
:10E68000E61806604B20C0001818205808600120CA
:10E69000A8435061002070BD0E2070BD042070BDE5
:10E6A000882C0020F4320020AC37002010B56D4CCF
:10E6B000A1692069405CFEF743F8002802D1A169F6
:10E6C000491CA16110BD10B5C020FEF739F8002823
:10E6D00005D164498A69002A01D1634A8A6010BD64
:10E6E00010B5604CA1692069405CC02803D0DB28CC
:10E6F00003D0042010BDDC2000E0DD20FEF720F870
:10E700000028F7D1A169491CA1615749A16010BD3A
:10E7100010B5DB20FEF714F8002802D1514A534906
:10E72000916010BD30B44F4B5A6A002A09D0DC68A2
:10E73000002C06D00020D9695862D861A44630BCAC
:10E74000604730BC7047C02808D04649DB2806D057
:10E75000CB694A6A9854521C4A627047E2E74448BF
:10E760004860704710B53F4CC02808D021464A6A1F
:10E77000CB69511CDC2805D0DD2806D104E0FFF769
:10E78000D1FF04E0C02000E0DB20985461623948EA
:10E79000606010BDC02802D13249364848607047D9
:10E7A0003049C860002070472E480078002800D00B
:10E7B0000020704710B52B48002101704088FDF7FC
:10E7C000D8FF10BD10B5002807D0264A1378012BBA
:10E7D00005D0022B0FD0082010BD102010BD002343
:10E7E000936151611061022010702348906000F025
:10E7F0000DF8002010BD042010BD1A4A1162D0612E
:10E80000002050621D4850600020704770B5164DC2
:10E810001B4E144C10E0A1692069415CC02903D053
:10E82000A169405CDB2803D1A068A84200D1A660A2
:10E83000A0688047042813D0A06961698842EAD3A0
:10E840000D48A060FFF73FFF002809D1012020708C
:10E85000E368002B04D00B48A2690068216998473F
:10E8600070BD00008C2C0020ADE60300E1E6030043
:10E8700065E7030047E70300C7E6030095E70300E9
:10E8800011E7030054F1030010B5F848F74C007D80
:10E89000E41CC000207000206070A070204600F0D2
:10E8A00024FAE07004212046FFF78CFF10BDF3B579
:10E8B00081B04B26029FF600EC4C0546042F65D92B
:10E8C0002878410662D5010660D569780A07120FDB
:10E8D0000E2A5BD14118AA78E878101808180006AB
:10E8E000000E53D10022B91E2846FFF7DBF9E919C3
:10E8F0001039CA7B8B7B11021943884246D1287894
:10E90000012741076069490FC2B28A4231D1401CD8
:10E910004007400F6061FFF7B7FF67700298FFF78D
:10E920008EFE002803D000221146FEF765FBCF497A
:10E9300030461031FFF726FE00280AD0042804D004
:10E94000002211461046FEF757FBC84805212C301F
:10E9500001E031462069FFF750FF002803D0002274
:10E960001146FEF749FBE168002901D000208847E5
:10E97000FEBD31462069FFF740FF002803D000228A
:10E980001146FEF739FBFFF77FFFFEBD31462069D8
:10E99000FFF733FF0028F8D000221146FEF72CFBCA
:10E9A000FEBD70B5B14C257821464B6A002D12D0C2
:10E9B0000A46116AD269012D1ED0022D1BD10028F2
:10E9C00028D0022834D0032815D1207E401C4007CF
:10E9D000400FA06138E000280DD11846FEF743FE35
:10E9E000002803D000221146FEF706FBA16800298B
:10E9F00001D0A078884770BD0128FCD1891D104640
:10EA0000FFF7E0FE002803D000221146FEF7F4FADB
:10EA100002201AE000200246A06295491846FEF73F
:10EA2000E5FD0028E7D000221146FEF7E5FA70BDAB
:10EA3000A06A052806D0401CA062891D1046FFF779
:10EA4000C1FE70BD0120A070002000F057F970BD1C
:10EA500037B568460078002808D0012802D002287F
:10EA60004BD14FE00120FFF79CFF3EBD02997F4C48
:10EA70000198042921D341780807000F06D00E28F9
:10EA80001BD102990198FFF712FF3EBD0198037850
:10EA90008278C078591810180818C0B200220028CF
:10EAA0000BD19806410F207E401C4007400F884242
:10EAB00003D1A2700320FFF774FF4B252069ED00FE
:10EAC000002801D0294614E0684928461031FFF794
:10EAD00059FD002808D0042804D000221146104611
:10EAE000FEF78AFA052102E02946206901E05F4825
:10EAF0002C30FFF782FE0028C7D000221146FEF717
:10EB00007BFA3EBD0521F2E710B504465748C460C4
:10EB10005848FFF745FE002803D000221146FEF7B3
:10EB20006BFA002C01D0002010BD0E2010BD10B5D6
:10EB300004464E4884604F48FFF732FE002803D059
:10EB400000221146FEF758FA002C01D0002010BD1B
:10EB50000E2010BD022024E770B5444C0020E06177
:10EB60002062A0626070207001206061A061A070CE
:10EB700001462046404A2430FEF7DAFC002810D136
:10EB8000FFF7DAFC00280DD1FFF70EFE002809D1AF
:10EB90004B252146ED0010312846FFF7F3FC0028F5
:10EBA00001D0032070BD29462069FFF726FE70BD05
:10EBB00010B52E4C0020A060E060FFF7CCFC0028D0
:10EBC00003D000221146FEF717FAFFF7F3FD0028E5
:10EBD00003D000221146FEF70FFA606AFEF743FDEC
:10EBE000042804D1002211461046FEF705FA002041
:10EBF00010BD10B50446FFF7B0FC002802D1216813
:10EC0000091D216010BD10B5FFF7B8FC10BD10B58F
:10EC1000164CE069001FE061217DCA00217E0A4395
:10EC2000C0210A430270218C0A010E324270120A7E
:10EC3000827000F05AF80146E0690022C170216A32
:10EC4000091DFFF72FF80246216AE06943181A717F
:10EC5000120A5A71891DFFF7B5FD040002D0042C79
:10EC600010D10BE0022000F049F80BE0B42C00209A
:10EC7000DF4F000051EA030055EB0300012000F0D4
:10EC80003DF80024204610BD002808D01D4A137806
:10EC9000002B01D0042070471162D061B7E70E202D
:10ECA000704738B50D46040017D0002D15D0002050
:10ECB000144900904A78002A0DD0487069462046D1
:10ECC000FFF7CAFC02460098801F00902880206849
:10ECD000001D206002E0042200E00E22104638BD34
:10ECE00010B5001FFFF777FC10BD017842788078DF
:10ECF00051184018C043401CC0B270470149087009
:10ED000000204EE6B42C002010B508461146FDF751
:10ED100081FA10BDF8B53D4C2078002837D0206925
:10ED2000002807D00026E068002805D00025002E26
:10ED300004D013E00126F6E70125F8E7684651DF25
:10ED4000052806D0002806D000221146FEF754F907
:10ED500004E0012602E0216900988847002D12D1C5
:10ED6000608869460880A06861DF052806D0002811
:10ED700006D000221146FEF73FF904E0012502E02B
:10ED8000E168A0688847002ED8D0002DCFD0F8BD0C
:10ED900070B5002901D08C0701D0072070BD1B4C35
:10EDA0000125A16062801A49636010DF0028F5D157
:10EDB000257016202EDF70BD11DF002801D0012143
:10EDC00000E00021114A11707047002803D00F495C
:10EDD000C860002070470E207047002803D00B4900
:10EDE0000861002070470E20704710B50748406842
:10EDF000002807D08047002803D000221146FEF7E4
:10EE0000FBF810BDFFF786FF10BD0000E82C0020C6
:10EE100009ED030010B5002904D000221146104668
:10EE2000FEF7EAF8FFF776FF10BD10B50021024AA1
:10EE30000846FEF701F910BD15EE0300F8B5042AE7
:10EE40002CD3830712D00B78491C0370401C521E30
:10EE500083070BD00B78491C0370401C521E83079C
:10EE600004D00B78491C0370401C521E8B079B0F6B
:10EE700005D0C91ADF002023DE1B08C90AE0FDF710
:10EE8000ADF9F8BD1D4608C9FD401C46B4402C43F1
:10EE900010C0121F042AF5D2F308C91A521EF0D46A
:10EEA0000B78491C0370401C521EEAD40B78491C95
:10EEB0000370401C521EE4D409780170F8BD01E0D3
:10EEC00004C0091F0429FBD28B0701D50280801CD6
:10EED000C90700D00270704700290BD0C30702D0C9
:10EEE0000270401C491E022904D3830702D5028008
:10EEF000801C891EE3E70022EEE70022DFE70378AB
:10EF0000C2781946437812061B0219438378C078E9
:10EF10001B04194311430902090A000608437047FC
:10EF2000002203098B422CD3030A8B4211D3002306
:10EF30009C464EE003460B433CD4002243088B42E0
:10EF400031D303098B421CD3030A8B4201D394466D
:10EF50003FE0C3098B4201D3CB01C01A5241830960
:10EF60008B4201D38B01C01A524143098B4201D31A
:10EF70004B01C01A524103098B4201D30B01C01A45
:10EF80005241C3088B4201D3CB00C01A52418308BF
:10EF90008B4201D38B00C01A524143088B4201D3EC
:10EFA0004B00C01A5241411A00D20146524110464C
:10EFB00070475DE0CA0F00D04942031000D34042C1
:10EFC000534000229C4603098B422DD3030A8B42F7
:10EFD00012D3FC22890112BA030A8B420CD3890195
:10EFE00092118B4208D3890192118B4204D389017B
:10EFF0003AD0921100E08909C3098B4201D3CB01B9
:10F00000C01A524183098B4201D38B01C01A52416D
:10F0100043098B4201D34B01C01A524103098B4271
:10F0200001D30B01C01A5241C3088B4201D3CB005C
:10F03000C01A524183088B4201D38B00C01A52413F
:10F04000D9D243088B4201D34B00C01A5241411A16
:10F0500000D20146634652415B10104601D3404244
:10F06000002B00D54942704763465B1000D34042F5
:10F0700001B50020C046C04602BD704770477047CA
:10F08000754600F023F8AE46050069465346C008B1
:10F09000C000854618B020B5FDF7B6F960BC002762
:10F0A0004908B6460026C0C5C0C5C0C5C0C5C0C554
:10F0B000C0C5C0C5C0C5403D49008D467047044627
:10F0C000C046C0462046FDF748F80000004870479B
:10F0D000C837002001491820ABBEFEE72600020019
:10F0E000704730B47446641E2578641CAB4200D26D
:10F0F0001D46635D5B00E31830BC1847020000004A
:10F1000000000000000000000000000000010000FE
:10F110000300000031D903000000000000000000DF
:10F1200002000000000000000000000000000000DD
:10F1300000000000040000000000000000000000CB
:10F14000000000000000000085DD0300000000005A
:10F1500000000000010000000000000000000000AE
:10F1600080F10300002C0020FC00000004C103001B
:10F170007CF20300FC2C00202C13000020C10300B3
:10F180000024F40001000000FFFF00000000000068
:10F19000000000000000000000000000000000006F
:10F1A000000000000000000000000000000000005F
:10F1B000000000000000000000000000000000004F
:10F1C000000000000000000000000000000000003F
:10F1D000000000000000000000000000000000002F
:10F1E000000000000000000000000000000000001F
:10F1F000000000000000000000000000000000000F
:10F2000000000000000000000000000000000000FE
:10F2100095E70300ADE603000000000000000000D9
:10F2200000000000000000000000000000000000DE
:10F2300000000000000000000000000000000000CE
:10F2400000000000000000000000000000000000BE
:10F2500000000000000000000000000000000000AE
:10F26000000000000000000000000000000000009E
:0CF2700000000000000000000000000092
:020000041000EA
:0410140000C0030015
:040000050003C0C173
:00000001FF
